:020000020000FC
:100000003AC4189518951AC426C4189561C39EC39E
:10001000189518951895189518951895A3C31895BF
:100020001895189518951A006000C8091D007A00E7
:10003000000045D2EFE7F0E0008111812281338199
:10004000E7E8F0E00083118322833383E7E8F0E000
:100050000081118122813381E7E8F0E00080118086
:1000600022803380000E111E221E331EE7E8F0E0CE
:10007000008111812281338145E030D4001A110AB8
:10008000220A330AE7E8F0E00081118122813381FE
:1000900046E024D4001A110A220A330AE7E8F0E005
:1000A000008211822282338200E000937C0000E013
:1000B00000937D0000E000937E0001E00093790052
:1000C000E7E8F0E00081118122813381083E43E0BE
:1000D000140740E0240740E03407A4F0E7E8F0E02C
:1000E0000081118122813381085E1340204030401D
:1000F0000083118322833383EEE7F0E000810395D0
:100100000083DECFE7E8F0E00081118122813381B6
:10011000043640E0140740E0240740E03407A4F030
:10012000E7E8F0E00081118122813381045610401C
:10013000204030400083118322833383EDE7F0E0D9
:10014000008103950083DECFE7E8F0E000811181B4
:10015000228133810A3040E0140740E0240740E068
:100160003407A4F0E7E8F0E00081118122813381B7
:100170000A50104020403040008311832283338393
:10018000ECE7F0E0008103950083DECFE7E8F0E0E4
:100190000081118122813381053040E0140740E065
:1001A000240740E03407F4F000917C00093031F07E
:1001B000ECE7F0E000810395008314C000E00093B9
:1001C0007C00EDE7F0E000810395008300917D0065
:1001D0000A3041F400E000937D00EEE7F0E000819A
:1001E0000395008300917C000093750000917D00D1
:1001F0000093760000917E0000937700E3E9F0E041
:100200004081518162817381EFE7F0E000811181CB
:100210002281338143D340ED52E060E070E089D326
:10022000EFE8F0E00083118322833383E3E8F0E01A
:100230000081118122813381EBE8F0E0008311839A
:1002400022833383EBE8F0E0008111812281338146
:10025000EFE8F0E040815181628173810417150756
:10026000260737070CF06BC0EFE8F0E00081118142
:1002700022813381085C104020403040EBE8F0E000
:100280004081518162817381041715072607370762
:100290000CF055C0EBE8F0E0008011802280338044
:1002A000EFE8F0E0008111812281338140917B00F1
:1002B00050E060E070E0041B150B260B370B01507B
:1002C00010402040304000161106220633062CF460
:1002D000EBE7F0E0008103950083EFE8F0E00081B8
:1002E00011812281338140917B0050E060E070E019
:1002F000041B150B260B370B0F5F1F4F2F4F3F4F64
:10030000EBE8F0E0408151816281738104171507A9
:10031000260737072CF4EBE7F0E000810A9500830D
:1003200000917B00003818F00FE700937B000091EC
:100330007B000F3F39F400E000937B0003C000E036
:1003400000937B0000917B00083040F000917B001F
:100350000695069506950093780003C003E1009387
:10036000780000917B00000F03BD07E007BB03E0AE
:100370000A95F1F70000B69B03C004E608BD02C071
:1003800000E008BD07E407BB00E418B3102718BB62
:10039000B7998BC000E10093750000E100937600EF
:1003A00000E10093770000E10093780005E00093FE
:1003B000790007EA11E601501040E9F700C000009B
:1003C000B79973C000E418B3102718BBE3E8F0E056
:1003D000408151816281738100ED12E020E030E0C4
:1003E0005DD2EFE7F0E04081518162817381A1D25B
:1003F000E3E9F0E00083118322833383E199FECFA8
:1004000003E010E01FBB0EBBE3E9F0E000810DBB91
:100410000DB300937C00E29AE19AE199FECF02E0ED
:1004200010E01FBB0EBBE3E9F0E01181012F0DBB13
:100430000DB3ECE7F0E01081100F1083E29AE19A1F
:10044000E199FECF01E010E01FBB0EBBE3E9F0E055
:100450002281022F0DBB0DB3ECE7F0E01081100FED
:100460001083E29AE19AE199FECF00E010E01FBB11
:100470000EBBE3E9F0E03381032F0DBB0DB3ECE7D6
:10048000F0E01081100F1083E29AE19AE199FECF1B
:1004900004E010E01FBB0EBB00917C000DBBE29A94
:1004A000E19A00E418B3102718BB0FE31DE023E026
:1004B000015010402040E1F700C00000BBCD0FEF1D
:1004C00001BB0FEF02BB0FE004BB0FE005BB07E46D
:1004D00007BB00E008BB00E00FBD0BE00EBD00E075
:1004E0000BBD0FEF0ABD00E009BD00E008BD00E054
:1004F00007BD00E006BD0AE405BD00E003BD00E065
:1005000002BD04E407B90FEE06B900E010E01FBB1E
:100510000EBBE199FECFE09A0DB300937C000DB3C2
:10052000302F20E010E000E0E3E9F0E000831183E9
:100530002283338301E010E01FBB0EBBE199FECFA5
:10054000E09A0DB3ECE7F0E01081100F10832DB3AB
:1005500030E000E010E0E3E9F0E0408151816281A9
:100560007381402B512B622B732B40835183628309
:10057000738302E010E01FBB0EBBE199FECFE09A4F
:100580000DB3ECE7F0E01081100F10830DB310E015
:1005900020E0322F212F102F00E0E3E9F0E040812E
:1005A000518162817381402B512B622B732B4083CD
:1005B00051836283738303E010E01FBB0EBBE1999C
:1005C000FECFE09A0DB3ECE7F0E01081100F10833E
:1005D0000DB310E020E030E0E3E9F0E0408151812C
:1005E00062817381402B512B622B732B408351838B
:1005F0006283738304E010E01FBB0EBBE199FECF62
:10060000E09A00917C001DB3011709F45DC008E574
:1006100012E020E030E0E3E9F0E000831183228380
:100620003383E199FECF03E010E01FBB0EBBE3E98B
:10063000F0E000810DBB0DB300937C00E29AE19ADB
:10064000E199FECF02E010E01FBB0EBBE3E9F0E052
:100650001181012F0DBB0DB3ECE7F0E01081100FFD
:100660001083E29AE19AE199FECF01E010E01FBB0E
:100670000EBBE3E9F0E02281022F0DBB0DB3ECE7E6
:10068000F0E01081100F1083E29AE19AE199FECF19
:1006900000E010E01FBB0EBBE3E9F0E03381032F65
:1006A0000DBB0DB3ECE7F0E01081100F1083E29A60
:1006B000E19AE199FECF04E010E01FBB0EBB009170
:1006C0007C000DBBE29AE19A08ED09BF7894089589
:1006D000FA93EA934A932A931A930A932FB70FEF48
:1006E00002BBEAE7F0E0008103950083EAE7F0E06F
:1006F00000810370008307EF10E040917A00C8D0BA
:100700000F7005BB00917A00E02FEB58F0E00081FC
:10071000E02FE05AF0E0008102BB00917A001091D6
:100720007900011709F4979806B10F7306B901E033
:1007300017B1102717B906B1006C06B92FBF099180
:10074000199129914991E991F99118951A930A9370
:100750001FB708B5002311F00FEF02BB1FBF0991AF
:10076000199118958A93FA93EA933A922A921A92D7
:100770000A927A936A935A934A933A932A931A93D2
:100780000A938FB704B110E020E030E008011901AE
:1007900015B100E0212F220F220B322F002A112A3F
:1007A000222A332A389B1DC0EFE7F0E040815181B7
:1007B0006281738180019101041B150B260B370B9D
:1007C00042E08CD0EFE7F0E040815181628173819B
:1007D000400F511F621F731F4083518362837383D5
:1007E0001CC0E3E8F0E040815181628173818001A7
:1007F0009101041B150B260B370B43E06FD0E3E888
:10080000F0E04081518162817381400F511F621F6E
:10081000731F40835183628373838FBF0991199142
:10082000299139914991599169917991099019903A
:1008300029903990E991F991899118951A930A9321
:100840001FB703B50E3F18F408B3087F08BB1FBFDE
:100850000991199118951A930A931FB703B500319E
:1008600018F008B3076008BB1FBF099119911895CC
:1008700000008895FECF06ED0DBF00E00EBFC7EB70
:10088000D0E078D0002309F085D0D3DBF1DFF0CFC2
:100890004A951AF015950795FBCF08952224349FA9
:1008A000302D259F300D169F300D079F300D249F52
:1008B000202D310D159F200D311D069F200D311D5E
:1008C000149F102D210D321D059F100D211D321D6D
:1008D000049F002D110D221D321D08954A952AF006
:1008E0003595279517950795F9CF0895002411247C
:1008F0001001E0E2EA9592F0001F111F221F331F42
:10090000001C111C221C331C041615062606370673
:1009100088F3041A150A260A370AECCF001F111FA4
:10092000221F331FA001B10100951095209530952D
:100930000895FF27772312F4F16014D0332312F4C3
:10094000F09508D0D3DFF69508F404D0F69508F4B6
:1009500009C0089530952095109501951F4F2F4F90
:100960003F4F089570956095509541955F4F6F4F3B
:100970007F4F089501E0089520E006D0E9F708953B
:10098000259102D0E9F708952D9301501040202FB2
:10099000212B089586E290E0FC0105911491FC0161
:1009A0003296A591B491FC01349625913491422F51
:1009B000432B19F0F901E4DF01C0DEDF069610E0F9
:1009C0008233910748F30895C0F9A4B0999282F850
:1009D00080908883C6A1868EFF9C87C1BF040302D6
:0209E00001050F
:0400000300000000F9
:00000001FF
